:100000000C945D000C9485000C9485000C94850084
:100010000C9485000C9485000C9485000C9485004C
:100020000C9485000C9485000C9485000C9485003C
:100030000C9485000C9485000C9485000C9485002C
:100040000C9421040C9485000C94E7030C94AC03ED
:100050000C9485000C9485000C9485000C9485000C
:100060000C9485020C94850000000007000201003A
:100070000003040600000000000000000000000073
:10008000250028002B0000000000240027002A0083
:10009000040404040404040402020202020203032E
:1000A0000303030301020408102040800102040836
:1000B0001020010204081020BE0411241FBECFEF3F
:1000C000D8E0DEBFCDBF11E0A0E0B1E0E4EFF9E0A1
:1000D00002C005900D92A032B107D9F722E0A0E24C
:1000E000B1E001C01D92AC34B207E1F710E0CDE5FC
:1000F000D0E004C02197FE010E94F204CC35D10764
:10010000C9F70E94C4040C94EF040C940000E1EBC6
:10011000F0E02491EDE9F0E08491882399F090E0FB
:10012000880F991FFC01EA57FF4FA591B491FC017C
:10013000E458FF4F859194918FB7F894EC91E22B9E
:10014000EC938FBF0895E5E7F0E09491E1EBF0E0E8
:100150002491EDE9F0E0E491EE2309F43CC0992309
:1001600039F1933091F038F49130A9F0923001F5E3
:1001700094B59F7D12C0963091F09730A1F09430E5
:10018000B9F4909180009F7D03C0909180009F778B
:10019000909380000DC094B59F7794BD09C0909155
:1001A000B0009F7703C09091B0009F7D9093B00006
:1001B000F0E0EE0FFF1FE458FF4FA591B4919FB7F9
:1001C000F894811104C08C912095282302C0EC91F1
:1001D0002E2B2C939FBF089585ED8093BC008091BA
:1001E000BC0084FDFCCF109226020895613298F481
:1001F00020912602243089F460930202282FA2EE77
:10020000B1E0FC018E2F821B861718F481918D932B
:10021000F9CF80E0089581E0089582E0089508957F
:100220008FEF9FEF08958FEF9FEF08958091D50195
:1002300090E09195819591090895CF93DF93CB013B
:10024000EA01642F0E94F600CE01DF91CF9108955C
:10025000CF93DF931F92CDB7DEB7698361E0CE0104
:1002600001960E94F60081E090E00F90DF91CF911F
:1002700008950F931F93CF93DF93FC01A685B78555
:100280008D01005C1F4FE8018881998101968F7371
:100290009927AD014E5B5F4FEA012881398128170C
:1002A0003907D1F3E80128813981A20FB31F6C937C
:1002B000A685B785A05CBF4F11969C938E93A689A7
:1002C000B7892C9181E090E0078C02C0880F991FBC
:1002D0000A94E2F7822B8C9381E081A30488F5894C
:1002E000E02D80818064808381E090E0DF91CF9178
:1002F0001F910F910895FC0181A1882329F0A48901
:10030000B5898C9186FFFBCF11A20895FC01A485CD
:10031000B585FD01E05CFF4F2081318132968081FF
:1003200091812817390779F080819181A80FB91F31
:100330008C91208131812F5F3F4F2F733327318381
:10034000208390E008958FEF9FEF0895DC011C96C5
:10035000ED91FC911D97DF01A05CBF4F2D913C9169
:10036000119712968D919C9111972817390739F0A2
:100370008D919C91E80FF91F808190E008958FEF97
:100380009FEF0895FC0124853585F901E05CFF4F5E
:1003900080819181329620813181821B930B8F73F2
:1003A0009927089583EB91E00C94C2010895CF92B0
:1003B000DF92EF92FF920F931F93CF93DF936C0125
:1003C000EB017B01E40EF51E00E010E0CE15DF0529
:1003D00061F06991D601ED91FC910190F081E02DE1
:1003E000C6010995080F191FF1CFC801DF91CF9100
:1003F0001F910F91FF90EF90DF90CF900895789428
:1004000084B5826084BD84B5816084BD85B5826019
:1004100085BD85B5816085BDEEE6F0E080818160B7
:100420008083E1E8F0E010828081826080838081B7
:1004300081608083E0E8F0E0808181608083E1EB8F
:10044000F0E0808184608083E0EBF0E08081816077
:100450008083EAE7F0E0808184608083808182602D
:100460008083808181608083808180688083109216
:10047000C10008953FB7F894809127019091280119
:10048000A0912901B0912A0126B5A89B05C02F3F54
:1004900019F00196A11DB11D3FBFBA2FA92F982FAA
:1004A0008827820F911DA11DB11DBC01CD0142E025
:1004B000660F771F881F991F4A95D1F70895CF922D
:1004C000DF92EF92FF92CF93DF936B017C010E944A
:1004D0003A02EB01C114D104E104F10479F00E9465
:1004E0003A026C1B7D0B683E7340A0F381E0C81A92
:1004F000D108E108F108C851DC4FECCFDF91CF9172
:10050000FF90EF90DF90CF9008951F920F920FB65B
:100510000F9211242F933F934F935F936F937F9389
:100520008F939F93AF93BF93EF93FF938091B90005
:10053000887F803609F49CC068F5883209F45BC076
:1005400090F4803109F454C038F4882309F4EFC0E2
:10055000883009F44DC0EFC0883109F44CC08032B6
:1005600009F45DC0E8C0803409F468C048F4803301
:1005700009F455C0883309F0DEC080932502D1C04C
:10058000803509F44FC0883509F45DC0883409F01E
:10059000D2C0CFC0883909F4C0C0A8F4883709F4A4
:1005A00067C038F4883609F463C0803709F460C046
:1005B000C2C0883809F4B1C0803909F45FC08038FE
:1005C00009F0B9C05BC0803B09F481C038F4803ABF
:1005D00009F466C0883A09F47AC0ADC0803C09F4D9
:1005E000A0C0883C09F49DC0883B09F483C0A3C027
:1005F00080914B0210C090914A0280914902981755
:1006000070F5E0914A0281E08E0F80934A02F0E09B
:10061000E75DFD4F80818093BB0085EC7FC08093B8
:10062000250287C0E0914A0281E08E0F80934A0242
:100630008091BB00F0E0E75DFD4F808390914A021E
:100640008091490267C0E0914A0281E08E0F809359
:100650004A028091BB00F0E0E75DFD4F808380910E
:100660002802811166C081E08093270284EA5AC083
:1006700083E08093260210922402CFCF809124023F
:10068000803208F04AC0E091240281E08E0F80930E
:1006900024028091BB00F0E0EC5FFD4F8083BDCF72
:1006A00080912402803230F4E0912402F0E0EC5F8B
:1006B000FD4F10820E94EC006091240270E084E003
:1006C00092E0E0E0F0E00995109224022AC084E074
:1006D000809326021092030210920202E0E0F0E002
:1006E000099580910202811105C081E08093020288
:1006F0001092E201E091030281E08E0F80930302E9
:10070000F0E0EE51FE4F80818093BB009091030298
:1007100080910202981708F480CF85E88093BC008E
:100720000AC085EC8093BC001092260204C010928F
:1007300025020E94EC00FF91EF91BF91AF919F9134
:100740008F917F916F915F914F913F912F910F907A
:100750000FBE0F901F9018951F920F920FB60F9219
:1007600011242F933F938F939F93EF93FF932091A7
:100770006B0130916C0180916D0190916E01281791
:10078000390731F48091C1008F7D8093C10014C07E
:10079000E0916D01F0916E01E55DFE4F2081809149
:1007A0006D0190916E0101968F73992790936E0160
:1007B00080936D012093C600FF91EF919F918F91DF
:1007C0003F912F910F900FBE0F901F9018951F9281
:1007D0000F920FB60F9211242F934F935F938F9325
:1007E0009F93EF93FF938091C00082FD1CC02091E6
:1007F000C6008091AF019091B0014091B10150913C
:10080000B20101968F7399274817590771F0E0914B
:10081000AF01F091B001E159FE4F20839093B001F8
:100820008093AF0102C08091C600FF91EF919F912C
:100830008F915F914F912F910F900FBE0F901F904E
:1008400018951F920F920FB60F9211242F933F937A
:100850008F939F93AF93BF93809123019091240135
:10086000A0912501B09126013091220123E0230FB0
:100870002D3720F40196A11DB11D05C026E8230FD8
:100880000296A11DB11D2093220180932301909314
:100890002401A0932501B093260180912701909116
:1008A0002801A0912901B0912A010196A11DB11D35
:1008B0008093270190932801A0932901B0932A01E6
:1008C000BF91AF919F918F913F912F910F900FBE4C
:1008D0000F901F901895E6EDF1E01382128288EEDA
:1008E00093E0A0E0B0E084839583A683B78384E19E
:1008F00091E0918380830895E3EBF1E0138212820B
:1009000088EE93E0A0E0B0E084839583A683B7836C
:1009100084E091E0918380838FE691E095878487DE
:100920008BE291E09787868785EC90E0918B808BB6
:1009300084EC90E0938B828B80EC90E0958B848BA1
:1009400081EC90E0978B868B82EC90E0918F808F8A
:1009500086EC90E0938F828F84E0848F83E0858F94
:1009600087E0868F85E0878F81E080A30895E0E2AD
:10097000F1E082E0808383E0818308950E946B042C
:100980000E947C040C94B7040E94FF010E9487001F
:1009900081E00E94A30064E670E080E090E00E94A5
:1009A0005F0280E00E94A30068EE73E080E090E0C8
:1009B0000E945F0281E00E94A30068EC70E080E08A
:1009C00090E00E945F0280E00E94A30060ED77E06B
:1009D00080E090E00E945F020E94D201D9CFF8949B
:1009E0000C94F804EE0FFF1F0590F491E02D09948C
:0409F000F894FFCFA9
:1009F400000000003901D701C2018601A6017B0174
:100A04000000000028011D011601130110010F014F
:00000001FF
